{
  "_format": "hh-sol-artifact-1",
  "contractName": "Twitter",
  "sourceName": "contracts/Twitter.sol",
  "abi": [
    {
      "anonymous": false,
      "inputs": [
        {
          "indexed": false,
          "internalType": "address",
          "name": "author",
          "type": "address"
        },
        {
          "indexed": false,
          "internalType": "string",
          "name": "content",
          "type": "string"
        },
        {
          "indexed": false,
          "internalType": "uint256",
          "name": "timestamp",
          "type": "uint256"
        }
      ],
      "name": "TweetCreated",
      "type": "event"
    },
    {
      "inputs": [
        {
          "internalType": "uint256",
          "name": "_index",
          "type": "uint256"
        }
      ],
      "name": "getTweet",
      "outputs": [
        {
          "components": [
            {
              "internalType": "address",
              "name": "author",
              "type": "address"
            },
            {
              "internalType": "string",
              "name": "content",
              "type": "string"
            },
            {
              "internalType": "uint256",
              "name": "timestamp",
              "type": "uint256"
            }
          ],
          "internalType": "struct Twitter.Tweet",
          "name": "",
          "type": "tuple"
        }
      ],
      "stateMutability": "view",
      "type": "function"
    },
    {
      "inputs": [
        {
          "internalType": "string",
          "name": "_content",
          "type": "string"
        }
      ],
      "name": "postTweet",
      "outputs": [],
      "stateMutability": "nonpayable",
      "type": "function"
    },
    {
      "inputs": [
        {
          "internalType": "uint256",
          "name": "",
          "type": "uint256"
        }
      ],
      "name": "tweets",
      "outputs": [
        {
          "internalType": "address",
          "name": "author",
          "type": "address"
        },
        {
          "internalType": "string",
          "name": "content",
          "type": "string"
        },
        {
          "internalType": "uint256",
          "name": "timestamp",
          "type": "uint256"
        }
      ],
      "stateMutability": "view",
      "type": "function"
    }
  ],
  "bytecode": "0x608060405234801561001057600080fd5b506109ce806100206000396000f3fe608060405234801561001057600080fd5b50600436106100415760003560e01c80630cbc3dc414610046578063c3ad5ecb14610062578063e8d857b014610092575b600080fd5b610060600480360381019061005b91906105cb565b6100c4565b005b61007c60048036038101906100779190610610565b610215565b6040516100899190610842565b60405180910390f35b6100ac60048036038101906100a79190610610565b6103b0565b6040516100bb939291906107e4565b60405180910390f35b600060405180606001604052803373ffffffffffffffffffffffffffffffffffffffff16815260200184848080601f016020809104026020016040519081016040528093929190818152602001838380828437600081840152601f19601f82011690508083019250505050505050815260200142815250908060018154018082558091505060019003906000526020600020906003020160009091909190915060008201518160000160006101000a81548173ffffffffffffffffffffffffffffffffffffffff021916908373ffffffffffffffffffffffffffffffffffffffff16021790555060208201518160010190805190602001906101c7929190610492565b506040820151816002015550507fc933feff23f11bfe7d86d82bdd0aff8b92373983b105d321731056945472dca63383834260405161020994939291906107a4565b60405180910390a15050565b61021d610518565b6000805490508210610264576040517f08c379a000000000000000000000000000000000000000000000000000000000815260040161025b90610822565b60405180910390fd5b6000828154811061029e577f4e487b7100000000000000000000000000000000000000000000000000000000600052603260045260246000fd5b90600052602060002090600302016040518060600160405290816000820160009054906101000a900473ffffffffffffffffffffffffffffffffffffffff1673ffffffffffffffffffffffffffffffffffffffff1673ffffffffffffffffffffffffffffffffffffffff16815260200160018201805461031d9061090f565b80601f01602080910402602001604051908101604052809291908181526020018280546103499061090f565b80156103965780601f1061036b57610100808354040283529160200191610396565b820191906000526020600020905b81548152906001019060200180831161037957829003601f168201915b505050505081526020016002820154815250509050919050565b600081815481106103c057600080fd5b90600052602060002090600302016000915090508060000160009054906101000a900473ffffffffffffffffffffffffffffffffffffffff16908060010180546104099061090f565b80601f01602080910402602001604051908101604052809291908181526020018280546104359061090f565b80156104825780601f1061045757610100808354040283529160200191610482565b820191906000526020600020905b81548152906001019060200180831161046557829003601f168201915b5050505050908060020154905083565b82805461049e9061090f565b90600052602060002090601f0160209004810192826104c05760008555610507565b82601f106104d957805160ff1916838001178555610507565b82800160010185558215610507579182015b828111156105065782518255916020019190600101906104eb565b5b509050610514919061054f565b5090565b6040518060600160405280600073ffffffffffffffffffffffffffffffffffffffff16815260200160608152602001600081525090565b5b80821115610568576000816000905550600101610550565b5090565b60008083601f84011261057e57600080fd5b8235905067ffffffffffffffff81111561059757600080fd5b6020830191508360018202830111156105af57600080fd5b9250929050565b6000813590506105c581610981565b92915050565b600080602083850312156105de57600080fd5b600083013567ffffffffffffffff8111156105f857600080fd5b6106048582860161056c565b92509250509250929050565b60006020828403121561062257600080fd5b6000610630848285016105b6565b91505092915050565b61064281610891565b82525050565b61065181610891565b82525050565b60006106638385610880565b93506106708385846108cd565b61067983610970565b840190509392505050565b600061068f82610864565b610699818561086f565b93506106a98185602086016108dc565b6106b281610970565b840191505092915050565b60006106c882610864565b6106d28185610880565b93506106e28185602086016108dc565b6106eb81610970565b840191505092915050565b6000610703601583610880565b91507f547765657420646f6573206e6f742065786973742e00000000000000000000006000830152602082019050919050565b600060608301600083015161074e6000860182610639565b50602083015184820360208601526107668282610684565b915050604083015161077b6040860182610786565b508091505092915050565b61078f816108c3565b82525050565b61079e816108c3565b82525050565b60006060820190506107b96000830187610648565b81810360208301526107cc818587610657565b90506107db6040830184610795565b95945050505050565b60006060820190506107f96000830186610648565b818103602083015261080b81856106bd565b905061081a6040830184610795565b949350505050565b6000602082019050818103600083015261083b816106f6565b9050919050565b6000602082019050818103600083015261085c8184610736565b905092915050565b600081519050919050565b600082825260208201905092915050565b600082825260208201905092915050565b600061089c826108a3565b9050919050565b600073ffffffffffffffffffffffffffffffffffffffff82169050919050565b6000819050919050565b82818337600083830152505050565b60005b838110156108fa5780820151818401526020810190506108df565b83811115610909576000848401525b50505050565b6000600282049050600182168061092757607f821691505b6020821081141561093b5761093a610941565b5b50919050565b7f4e487b7100000000000000000000000000000000000000000000000000000000600052602260045260246000fd5b6000601f19601f8301169050919050565b61098a816108c3565b811461099557600080fd5b5056fea264697066735822122046fceedc1cfa43e4e1a88eb0b9aba535662620212f956053b44edf9b0583b42664736f6c63430008000033",
  "linkReferences": {},
  "deployedLinkReferences": {}
}